{
  "contractName": "CrowdFundingWithDeadline",
  "abi": [
    {
      "inputs": [
        {
          "internalType": "string",
          "name": "contractName",
          "type": "string"
        },
        {
          "internalType": "uint256",
          "name": "targetAmountEth",
          "type": "uint256"
        },
        {
          "internalType": "uint256",
          "name": "durationInMin",
          "type": "uint256"
        },
        {
          "internalType": "address payable",
          "name": "beneficiaryAddress",
          "type": "address"
        }
      ],
      "stateMutability": "nonpayable",
      "type": "constructor"
    },
    {
      "anonymous": false,
      "inputs": [
        {
          "indexed": false,
          "internalType": "address",
          "name": "adr",
          "type": "address"
        },
        {
          "indexed": false,
          "internalType": "uint256",
          "name": "totalCollected",
          "type": "uint256"
        },
        {
          "indexed": false,
          "internalType": "bool",
          "name": "succeeded",
          "type": "bool"
        }
      ],
      "name": "CampaignFinished",
      "type": "event"
    },
    {
      "inputs": [
        {
          "internalType": "address",
          "name": "",
          "type": "address"
        }
      ],
      "name": "amounts",
      "outputs": [
        {
          "internalType": "uint256",
          "name": "",
          "type": "uint256"
        }
      ],
      "stateMutability": "view",
      "type": "function"
    },
    {
      "inputs": [],
      "name": "beneficiary",
      "outputs": [
        {
          "internalType": "address",
          "name": "",
          "type": "address"
        }
      ],
      "stateMutability": "view",
      "type": "function"
    },
    {
      "inputs": [],
      "name": "collected",
      "outputs": [
        {
          "internalType": "bool",
          "name": "",
          "type": "bool"
        }
      ],
      "stateMutability": "view",
      "type": "function"
    },
    {
      "inputs": [],
      "name": "fundingDeadLine",
      "outputs": [
        {
          "internalType": "uint256",
          "name": "",
          "type": "uint256"
        }
      ],
      "stateMutability": "view",
      "type": "function"
    },
    {
      "inputs": [],
      "name": "name",
      "outputs": [
        {
          "internalType": "string",
          "name": "",
          "type": "string"
        }
      ],
      "stateMutability": "view",
      "type": "function"
    },
    {
      "inputs": [],
      "name": "state",
      "outputs": [
        {
          "internalType": "enum CrowdFundingWithDeadline.State",
          "name": "",
          "type": "uint8"
        }
      ],
      "stateMutability": "view",
      "type": "function"
    },
    {
      "inputs": [],
      "name": "targetAmount",
      "outputs": [
        {
          "internalType": "uint256",
          "name": "",
          "type": "uint256"
        }
      ],
      "stateMutability": "view",
      "type": "function"
    },
    {
      "inputs": [],
      "name": "totalCollected",
      "outputs": [
        {
          "internalType": "uint256",
          "name": "",
          "type": "uint256"
        }
      ],
      "stateMutability": "view",
      "type": "function"
    },
    {
      "inputs": [],
      "name": "contribute",
      "outputs": [],
      "stateMutability": "payable",
      "type": "function"
    },
    {
      "inputs": [],
      "name": "finishCrowdFunding",
      "outputs": [],
      "stateMutability": "nonpayable",
      "type": "function"
    },
    {
      "inputs": [],
      "name": "collect",
      "outputs": [],
      "stateMutability": "nonpayable",
      "type": "function"
    },
    {
      "inputs": [],
      "name": "withdraw",
      "outputs": [],
      "stateMutability": "nonpayable",
      "type": "function"
    },
    {
      "inputs": [],
      "name": "checkAddress",
      "outputs": [
        {
          "internalType": "address",
          "name": "",
          "type": "address"
        }
      ],
      "stateMutability": "view",
      "type": "function"
    },
    {
      "inputs": [],
      "name": "beforeDeadLine",
      "outputs": [
        {
          "internalType": "bool",
          "name": "",
          "type": "bool"
        }
      ],
      "stateMutability": "view",
      "type": "function"
    }
  ],
  "bytecode": "0x60806040523480156200001157600080fd5b50604051620016e5380380620016e58339818101604052810190620000379190620004e0565b83600090805190602001906200004f929190620001f3565b5073__Utils_________________________________63d8916bb9846040518263ffffffff1660e01b815260040162000089919062000582565b602060405180830381865af4158015620000a7573d6000803e3d6000fd5b505050506040513d601f19601f82011682018060405250810190620000cd91906200059f565b60018190555073__Utils_________________________________63529b380f836040518263ffffffff1660e01b81526004016200010c919062000582565b602060405180830381865af41580156200012a573d6000803e3d6000fd5b505050506040513d601f19601f820116820180604052508101906200015091906200059f565b62000160620001eb60201b60201c565b6200016c919062000600565b6002819055506000600360146101000a81548160ff021916908360038111156200019b576200019a6200065d565b5b021790555080600360006101000a81548173ffffffffffffffffffffffffffffffffffffffff021916908373ffffffffffffffffffffffffffffffffffffffff16021790555050505050620006f1565b600042905090565b8280546200020190620006bb565b90600052602060002090601f01602090048101928262000225576000855562000271565b82601f106200024057805160ff191683800117855562000271565b8280016001018555821562000271579182015b828111156200027057825182559160200191906001019062000253565b5b50905062000280919062000284565b5090565b5b808211156200029f57600081600090555060010162000285565b5090565b6000604051905090565b600080fd5b600080fd5b600080fd5b600080fd5b6000601f19601f8301169050919050565b7f4e487b7100000000000000000000000000000000000000000000000000000000600052604160045260246000fd5b6200030c82620002c1565b810181811067ffffffffffffffff821117156200032e576200032d620002d2565b5b80604052505050565b600062000343620002a3565b905062000351828262000301565b919050565b600067ffffffffffffffff821115620003745762000373620002d2565b5b6200037f82620002c1565b9050602081019050919050565b60005b83811015620003ac5780820151818401526020810190506200038f565b83811115620003bc576000848401525b50505050565b6000620003d9620003d38462000356565b62000337565b905082815260208101848484011115620003f857620003f7620002bc565b5b620004058482856200038c565b509392505050565b600082601f830112620004255762000424620002b7565b5b815162000437848260208601620003c2565b91505092915050565b6000819050919050565b620004558162000440565b81146200046157600080fd5b50565b60008151905062000475816200044a565b92915050565b600073ffffffffffffffffffffffffffffffffffffffff82169050919050565b6000620004a8826200047b565b9050919050565b620004ba816200049b565b8114620004c657600080fd5b50565b600081519050620004da81620004af565b92915050565b60008060008060808587031215620004fd57620004fc620002ad565b5b600085015167ffffffffffffffff8111156200051e576200051d620002b2565b5b6200052c878288016200040d565b94505060206200053f8782880162000464565b9350506040620005528782880162000464565b92505060606200056587828801620004c9565b91505092959194509250565b6200057c8162000440565b82525050565b600060208201905062000599600083018462000571565b92915050565b600060208284031215620005b857620005b7620002ad565b5b6000620005c88482850162000464565b91505092915050565b7f4e487b7100000000000000000000000000000000000000000000000000000000600052601160045260246000fd5b60006200060d8262000440565b91506200061a8362000440565b9250827fffffffffffffffffffffffffffffffffffffffffffffffffffffffffffffffff03821115620006525762000651620005d1565b5b828201905092915050565b7f4e487b7100000000000000000000000000000000000000000000000000000000600052602160045260246000fd5b7f4e487b7100000000000000000000000000000000000000000000000000000000600052602260045260246000fd5b60006002820490506001821680620006d457607f821691505b60208210811415620006eb57620006ea6200068c565b5b50919050565b610fe480620007016000396000f3fe6080604052600436106100dd5760003560e01c806384bcefd41161007f578063c9b9b04611610059578063c9b9b0461461027a578063d7bb99ba146102a5578063e29eb836146102af578063e5225381146102da576100dd565b806384bcefd4146101f9578063953b8fb814610224578063c19d93fb1461024f576100dd565b80631256fa53116100bb5780631256fa531461014f57806338af3eed1461017a5780633ccfd60b146101a557806355a3b2c1146101bc576100dd565b806306fdde03146100e2578063083dca111461010d5780630eef346d14610124575b600080fd5b3480156100ee57600080fd5b506100f76102f1565b6040516101049190610abd565b60405180910390f35b34801561011957600080fd5b5061012261037f565b005b34801561013057600080fd5b506101396104fd565b6040516101469190610af8565b60405180910390f35b34801561015b57600080fd5b50610164610503565b6040516101719190610b54565b60405180910390f35b34801561018657600080fd5b5061018f61050b565b60405161019c9190610b54565b60405180910390f35b3480156101b157600080fd5b506101ba610531565b005b3480156101c857600080fd5b506101e360048036038101906101de9190610ba0565b610735565b6040516101f09190610af8565b60405180910390f35b34801561020557600080fd5b5061020e61074d565b60405161021b9190610be8565b60405180910390f35b34801561023057600080fd5b50610239610760565b6040516102469190610af8565b60405180910390f35b34801561025b57600080fd5b50610264610766565b6040516102719190610c7a565b60405180910390f35b34801561028657600080fd5b5061028f610779565b60405161029c9190610be8565b60405180910390f35b6102ad61078c565b005b3480156102bb57600080fd5b506102c46108e3565b6040516102d19190610af8565b60405180910390f35b3480156102e657600080fd5b506102ef6108e9565b005b600080546102fe90610cc4565b80601f016020809104026020016040519081016040528092919081815260200182805461032a90610cc4565b80156103775780601f1061034c57610100808354040283529160200191610377565b820191906000526020600020905b81548152906001019060200180831161035a57829003601f168201915b505050505081565b600080600381111561039457610393610c03565b5b600360149054906101000a900460ff1660038111156103b6576103b5610c03565b5b146103f6576040517f08c379a00000000000000000000000000000000000000000000000000000000081526004016103ed90610d42565b60405180910390fd5b6103fe610779565b1561043e576040517f08c379a000000000000000000000000000000000000000000000000000000000815260040161043590610dd4565b60405180910390fd5b600560009054906101000a900460ff16610482576001600360146101000a81548160ff0219169083600381111561047857610477610c03565b5b02179055506104ae565b6002600360146101000a81548160ff021916908360038111156104a8576104a7610c03565b5b02179055505b7f6fa7e87ebbd87ed4f1c40bba63144f68fd2bb022fb748ab3b61b5411c39bd47430600654600560009054906101000a900460ff166040516104f293929190610df4565b60405180910390a150565b60025481565b600030905090565b600360009054906101000a900473ffffffffffffffffffffffffffffffffffffffff1681565b600180600381111561054657610545610c03565b5b600360149054906101000a900460ff16600381111561056857610567610c03565b5b146105a8576040517f08c379a000000000000000000000000000000000000000000000000000000000815260040161059f90610d42565b60405180910390fd5b6000600460003373ffffffffffffffffffffffffffffffffffffffff1673ffffffffffffffffffffffffffffffffffffffff168152602001908152602001600020541161062a576040517f08c379a000000000000000000000000000000000000000000000000000000000815260040161062190610e77565b60405180910390fd5b6000600460003373ffffffffffffffffffffffffffffffffffffffff1673ffffffffffffffffffffffffffffffffffffffff1681526020019081526020016000205490506000600460003373ffffffffffffffffffffffffffffffffffffffff1673ffffffffffffffffffffffffffffffffffffffff168152602001908152602001600020819055503373ffffffffffffffffffffffffffffffffffffffff166108fc829081150290604051600060405180830381858888f193505050506107315780600460003373ffffffffffffffffffffffffffffffffffffffff1673ffffffffffffffffffffffffffffffffffffffff168152602001908152602001600020819055505b5050565b60046020528060005260406000206000915090505481565b600560009054906101000a900460ff1681565b60015481565b600360149054906101000a900460ff1681565b6000600254610786610a1c565b10905090565b60008060038111156107a1576107a0610c03565b5b600360149054906101000a900460ff1660038111156107c3576107c2610c03565b5b14610803576040517f08c379a00000000000000000000000000000000000000000000000000000000081526004016107fa90610d42565b60405180910390fd5b61080b610779565b61084a576040517f08c379a000000000000000000000000000000000000000000000000000000000815260040161084190610f09565b60405180910390fd5b34600460003373ffffffffffffffffffffffffffffffffffffffff1673ffffffffffffffffffffffffffffffffffffffff16815260200190815260200160002060008282546108999190610f58565b9250508190555034600660008282546108b29190610f58565b92505081905550600154600654106108e0576001600560006101000a81548160ff0219169083151502179055505b50565b60065481565b60028060038111156108fe576108fd610c03565b5b600360149054906101000a900460ff1660038111156109205761091f610c03565b5b14610960576040517f08c379a000000000000000000000000000000000000000000000000000000000815260040161095790610d42565b60405180910390fd5b600360009054906101000a900473ffffffffffffffffffffffffffffffffffffffff1673ffffffffffffffffffffffffffffffffffffffff166108fc6006549081150290604051600060405180830381858888f19350505050156109ed5760038060146101000a81548160ff021916908360038111156109e3576109e2610c03565b5b0217905550610a19565b6001600360146101000a81548160ff02191690836003811115610a1357610a12610c03565b5b02179055505b50565b600042905090565b600081519050919050565b600082825260208201905092915050565b60005b83811015610a5e578082015181840152602081019050610a43565b83811115610a6d576000848401525b50505050565b6000601f19601f8301169050919050565b6000610a8f82610a24565b610a998185610a2f565b9350610aa9818560208601610a40565b610ab281610a73565b840191505092915050565b60006020820190508181036000830152610ad78184610a84565b905092915050565b6000819050919050565b610af281610adf565b82525050565b6000602082019050610b0d6000830184610ae9565b92915050565b600073ffffffffffffffffffffffffffffffffffffffff82169050919050565b6000610b3e82610b13565b9050919050565b610b4e81610b33565b82525050565b6000602082019050610b696000830184610b45565b92915050565b600080fd5b610b7d81610b33565b8114610b8857600080fd5b50565b600081359050610b9a81610b74565b92915050565b600060208284031215610bb657610bb5610b6f565b5b6000610bc484828501610b8b565b91505092915050565b60008115159050919050565b610be281610bcd565b82525050565b6000602082019050610bfd6000830184610bd9565b92915050565b7f4e487b7100000000000000000000000000000000000000000000000000000000600052602160045260246000fd5b60048110610c4357610c42610c03565b5b50565b6000819050610c5482610c32565b919050565b6000610c6482610c46565b9050919050565b610c7481610c59565b82525050565b6000602082019050610c8f6000830184610c6b565b92915050565b7f4e487b7100000000000000000000000000000000000000000000000000000000600052602260045260246000fd5b60006002820490506001821680610cdc57607f821691505b60208210811415610cf057610cef610c95565b5b50919050565b7f496e76616c696420737461746500000000000000000000000000000000000000600082015250565b6000610d2c600d83610a2f565b9150610d3782610cf6565b602082019050919050565b60006020820190508181036000830152610d5b81610d1f565b9050919050565b7f43616e6e6f742066696e6973682063616d706169676e206265666f726520446560008201527f61646c696e650000000000000000000000000000000000000000000000000000602082015250565b6000610dbe602683610a2f565b9150610dc982610d62565b604082019050919050565b60006020820190508181036000830152610ded81610db1565b9050919050565b6000606082019050610e096000830186610b45565b610e166020830185610ae9565b610e236040830184610bd9565b949350505050565b7f4e6f7468696e672077617320636f6e7472696275746564000000000000000000600082015250565b6000610e61601783610a2f565b9150610e6c82610e2b565b602082019050919050565b60006020820190508181036000830152610e9081610e54565b9050919050565b7f4e6f20636f6e747269627574696f6e732061667465722074686520646561646c60008201527f696e650000000000000000000000000000000000000000000000000000000000602082015250565b6000610ef3602383610a2f565b9150610efe82610e97565b604082019050919050565b60006020820190508181036000830152610f2281610ee6565b9050919050565b7f4e487b7100000000000000000000000000000000000000000000000000000000600052601160045260246000fd5b6000610f6382610adf565b9150610f6e83610adf565b9250827fffffffffffffffffffffffffffffffffffffffffffffffffffffffffffffffff03821115610fa357610fa2610f29565b5b82820190509291505056fea2646970667358221220ba0c6f4c778829ffdba117ad6b3cf60520c37280f8d869dde806f503f15da71264736f6c634300080a0033",
  "deployedBytecode": "0x6080604052600436106100dd5760003560e01c806384bcefd41161007f578063c9b9b04611610059578063c9b9b0461461027a578063d7bb99ba146102a5578063e29eb836146102af578063e5225381146102da576100dd565b806384bcefd4146101f9578063953b8fb814610224578063c19d93fb1461024f576100dd565b80631256fa53116100bb5780631256fa531461014f57806338af3eed1461017a5780633ccfd60b146101a557806355a3b2c1146101bc576100dd565b806306fdde03146100e2578063083dca111461010d5780630eef346d14610124575b600080fd5b3480156100ee57600080fd5b506100f76102f1565b6040516101049190610abd565b60405180910390f35b34801561011957600080fd5b5061012261037f565b005b34801561013057600080fd5b506101396104fd565b6040516101469190610af8565b60405180910390f35b34801561015b57600080fd5b50610164610503565b6040516101719190610b54565b60405180910390f35b34801561018657600080fd5b5061018f61050b565b60405161019c9190610b54565b60405180910390f35b3480156101b157600080fd5b506101ba610531565b005b3480156101c857600080fd5b506101e360048036038101906101de9190610ba0565b610735565b6040516101f09190610af8565b60405180910390f35b34801561020557600080fd5b5061020e61074d565b60405161021b9190610be8565b60405180910390f35b34801561023057600080fd5b50610239610760565b6040516102469190610af8565b60405180910390f35b34801561025b57600080fd5b50610264610766565b6040516102719190610c7a565b60405180910390f35b34801561028657600080fd5b5061028f610779565b60405161029c9190610be8565b60405180910390f35b6102ad61078c565b005b3480156102bb57600080fd5b506102c46108e3565b6040516102d19190610af8565b60405180910390f35b3480156102e657600080fd5b506102ef6108e9565b005b600080546102fe90610cc4565b80601f016020809104026020016040519081016040528092919081815260200182805461032a90610cc4565b80156103775780601f1061034c57610100808354040283529160200191610377565b820191906000526020600020905b81548152906001019060200180831161035a57829003601f168201915b505050505081565b600080600381111561039457610393610c03565b5b600360149054906101000a900460ff1660038111156103b6576103b5610c03565b5b146103f6576040517f08c379a00000000000000000000000000000000000000000000000000000000081526004016103ed90610d42565b60405180910390fd5b6103fe610779565b1561043e576040517f08c379a000000000000000000000000000000000000000000000000000000000815260040161043590610dd4565b60405180910390fd5b600560009054906101000a900460ff16610482576001600360146101000a81548160ff0219169083600381111561047857610477610c03565b5b02179055506104ae565b6002600360146101000a81548160ff021916908360038111156104a8576104a7610c03565b5b02179055505b7f6fa7e87ebbd87ed4f1c40bba63144f68fd2bb022fb748ab3b61b5411c39bd47430600654600560009054906101000a900460ff166040516104f293929190610df4565b60405180910390a150565b60025481565b600030905090565b600360009054906101000a900473ffffffffffffffffffffffffffffffffffffffff1681565b600180600381111561054657610545610c03565b5b600360149054906101000a900460ff16600381111561056857610567610c03565b5b146105a8576040517f08c379a000000000000000000000000000000000000000000000000000000000815260040161059f90610d42565b60405180910390fd5b6000600460003373ffffffffffffffffffffffffffffffffffffffff1673ffffffffffffffffffffffffffffffffffffffff168152602001908152602001600020541161062a576040517f08c379a000000000000000000000000000000000000000000000000000000000815260040161062190610e77565b60405180910390fd5b6000600460003373ffffffffffffffffffffffffffffffffffffffff1673ffffffffffffffffffffffffffffffffffffffff1681526020019081526020016000205490506000600460003373ffffffffffffffffffffffffffffffffffffffff1673ffffffffffffffffffffffffffffffffffffffff168152602001908152602001600020819055503373ffffffffffffffffffffffffffffffffffffffff166108fc829081150290604051600060405180830381858888f193505050506107315780600460003373ffffffffffffffffffffffffffffffffffffffff1673ffffffffffffffffffffffffffffffffffffffff168152602001908152602001600020819055505b5050565b60046020528060005260406000206000915090505481565b600560009054906101000a900460ff1681565b60015481565b600360149054906101000a900460ff1681565b6000600254610786610a1c565b10905090565b60008060038111156107a1576107a0610c03565b5b600360149054906101000a900460ff1660038111156107c3576107c2610c03565b5b14610803576040517f08c379a00000000000000000000000000000000000000000000000000000000081526004016107fa90610d42565b60405180910390fd5b61080b610779565b61084a576040517f08c379a000000000000000000000000000000000000000000000000000000000815260040161084190610f09565b60405180910390fd5b34600460003373ffffffffffffffffffffffffffffffffffffffff1673ffffffffffffffffffffffffffffffffffffffff16815260200190815260200160002060008282546108999190610f58565b9250508190555034600660008282546108b29190610f58565b92505081905550600154600654106108e0576001600560006101000a81548160ff0219169083151502179055505b50565b60065481565b60028060038111156108fe576108fd610c03565b5b600360149054906101000a900460ff1660038111156109205761091f610c03565b5b14610960576040517f08c379a000000000000000000000000000000000000000000000000000000000815260040161095790610d42565b60405180910390fd5b600360009054906101000a900473ffffffffffffffffffffffffffffffffffffffff1673ffffffffffffffffffffffffffffffffffffffff166108fc6006549081150290604051600060405180830381858888f19350505050156109ed5760038060146101000a81548160ff021916908360038111156109e3576109e2610c03565b5b0217905550610a19565b6001600360146101000a81548160ff02191690836003811115610a1357610a12610c03565b5b02179055505b50565b600042905090565b600081519050919050565b600082825260208201905092915050565b60005b83811015610a5e578082015181840152602081019050610a43565b83811115610a6d576000848401525b50505050565b6000601f19601f8301169050919050565b6000610a8f82610a24565b610a998185610a2f565b9350610aa9818560208601610a40565b610ab281610a73565b840191505092915050565b60006020820190508181036000830152610ad78184610a84565b905092915050565b6000819050919050565b610af281610adf565b82525050565b6000602082019050610b0d6000830184610ae9565b92915050565b600073ffffffffffffffffffffffffffffffffffffffff82169050919050565b6000610b3e82610b13565b9050919050565b610b4e81610b33565b82525050565b6000602082019050610b696000830184610b45565b92915050565b600080fd5b610b7d81610b33565b8114610b8857600080fd5b50565b600081359050610b9a81610b74565b92915050565b600060208284031215610bb657610bb5610b6f565b5b6000610bc484828501610b8b565b91505092915050565b60008115159050919050565b610be281610bcd565b82525050565b6000602082019050610bfd6000830184610bd9565b92915050565b7f4e487b7100000000000000000000000000000000000000000000000000000000600052602160045260246000fd5b60048110610c4357610c42610c03565b5b50565b6000819050610c5482610c32565b919050565b6000610c6482610c46565b9050919050565b610c7481610c59565b82525050565b6000602082019050610c8f6000830184610c6b565b92915050565b7f4e487b7100000000000000000000000000000000000000000000000000000000600052602260045260246000fd5b60006002820490506001821680610cdc57607f821691505b60208210811415610cf057610cef610c95565b5b50919050565b7f496e76616c696420737461746500000000000000000000000000000000000000600082015250565b6000610d2c600d83610a2f565b9150610d3782610cf6565b602082019050919050565b60006020820190508181036000830152610d5b81610d1f565b9050919050565b7f43616e6e6f742066696e6973682063616d706169676e206265666f726520446560008201527f61646c696e650000000000000000000000000000000000000000000000000000602082015250565b6000610dbe602683610a2f565b9150610dc982610d62565b604082019050919050565b60006020820190508181036000830152610ded81610db1565b9050919050565b6000606082019050610e096000830186610b45565b610e166020830185610ae9565b610e236040830184610bd9565b949350505050565b7f4e6f7468696e672077617320636f6e7472696275746564000000000000000000600082015250565b6000610e61601783610a2f565b9150610e6c82610e2b565b602082019050919050565b60006020820190508181036000830152610e9081610e54565b9050919050565b7f4e6f20636f6e747269627574696f6e732061667465722074686520646561646c60008201527f696e650000000000000000000000000000000000000000000000000000000000602082015250565b6000610ef3602383610a2f565b9150610efe82610e97565b604082019050919050565b60006020820190508181036000830152610f2281610ee6565b9050919050565b7f4e487b7100000000000000000000000000000000000000000000000000000000600052601160045260246000fd5b6000610f6382610adf565b9150610f6e83610adf565b9250827fffffffffffffffffffffffffffffffffffffffffffffffffffffffffffffffff03821115610fa357610fa2610f29565b5b82820190509291505056fea2646970667358221220ba0c6f4c778829ffdba117ad6b3cf60520c37280f8d869dde806f503f15da71264736f6c634300080a0033",
  "immutableReferences": {},
  "source": "// SPDX-License-Identifier: MIT\r\npragma solidity >=0.4.22 <0.9.0;\r\n//importing library that we've created\r\nimport \"./Utils.sol\"; \r\n\r\ncontract CrowdFundingWithDeadline {\r\n\r\n    using Utils for *;//using this library for all types\r\n\r\n    enum State { Ongoing, Failed, Succeeded, PaidOut} //list of possible states    \r\n\r\n    event CampaignFinished(\r\n        address adr,\r\n        uint totalCollected,\r\n        bool succeeded\r\n    );\r\n\r\n    string public name; //name of campaign, a string\r\n    uint public targetAmount; //target amount in weis, to be successfull\r\n    uint public fundingDeadLine; //uint, which represents number of seconds fromm January 1, 1970\r\n    address public beneficiary;\r\n    State public state;\r\n    mapping(address => uint) public amounts; //a map called amounts, that contains how much each address has contributed to a campaign\r\n    bool public collected; //will be set to true once necessary amount is collected\r\n    uint public totalCollected;\r\n    //first 'modifier' keyword, then name of modifier 'inState', then single parameter 'expectedState'\r\n    modifier inState(State expectedState){\r\n        //body of modifier\r\n        require(state == expectedState, \"Invalid state\"); //checking if the state is same as expected state, if not then error message\r\n        _;//applying modifier to methods on SC, if this check is valid, then we need to execute the body of our method\r\n    }  \r\n\r\n    constructor(\r\n        string memory contractName,\r\n        uint targetAmountEth,\r\n        uint durationInMin,\r\n        address payable beneficiaryAddress\r\n    )\r\n        public \r\n    {\r\n        name = contractName;\r\n        targetAmount = Utils.etherToWei(targetAmountEth);//targetAmountEth * 1 ether;\r\n        fundingDeadLine = currentTime() + Utils.minutesToSeconds(durationInMin);//currentTime() + durationInMin * 1 minutes; //\"currentTime\" function is not defined, so we need to define it below \r\n        state = State.Ongoing;\r\n        beneficiary = beneficiaryAddress;\r\n    }\r\n\r\n    function contribute() public payable inState(State.Ongoing){ //should be payable because users will call this method to send funds. Then we specify that this method can only be called if our contract is in the ongoing state \r\n        require(\r\n            beforeDeadLine(),\r\n            \"No contributions after the deadline\"\r\n        );\r\n        amounts[msg.sender] += msg.value; //update the value that a particular account has contributed, then use the address on the sender 'msg.sender' as the key and then increase this by the value that was contributed in this transaction\r\n        totalCollected += msg.value; //increasing the totalCollected value\r\n        if(totalCollected>=targetAmount){ //checking if we have already collected more then we need to \r\n            collected = true;\r\n        } \r\n          \r\n    } \r\n\r\n    function finishCrowdFunding() public inState(State.Ongoing){\r\n        require(!beforeDeadLine(), \"Cannot finish campaign before Deadline\");\r\n        if(!collected){\r\n            state=State.Failed;\r\n        } else {\r\n               state= State.Succeeded;\r\n        }\r\n\r\n        emit CampaignFinished(address(this), totalCollected, collected);\r\n    }\r\n\r\n    function collect() public inState(State.Succeeded){\r\n        if(payable(beneficiary).send(totalCollected)){ //we are sending all the funds collected to the beneficiary and if the transaction succeeds then it is true and state will be changed to paidOut\r\n            state = State.PaidOut;\r\n        } else { //if the transaction is unsuccessful (i.e. beneficiary address is unvalid), state will be changed to failed\r\n            state = State.Failed;\r\n        }\r\n    }\r\n\r\n    function withdraw() public inState(State.Failed){ //the only method we can call in Failed state, it allows to get a refund for contributing\r\n        require(amounts[msg.sender] > 0, \"Nothing was contributed\"); //checking if particular user contributed to campaign\r\n        uint contributed = amounts[msg.sender]; //get amount of funds that this particular user has contributed\r\n        amounts[msg.sender] = 0; //changing the value that was contributed by this user to 0\r\n\r\n        if (!payable(msg.sender).send(contributed)){ //sending contributed amount to the user\r\n            amounts[msg.sender] = contributed; //if the transaction failes, we revert the change in amounts map and restore the value that was associated with this contributor\r\n        }\r\n    }\r\n            \r\n    function checkAddress() public view returns (address){\r\n        return address(this); //'this' keyword \r\n    }\r\n\r\n    function beforeDeadLine() public view returns(bool){\r\n        return currentTime() < fundingDeadLine;\r\n    }\r\n\r\n    function currentTime() internal virtual view returns(uint){ //definig currentTime function\r\n        return block.timestamp;\r\n    }\r\n    \r\n    // module.exports = async function(deployer){\r\n    //     await deployer.deploy(Utils);\r\n    //     deployer.link(Utils, CrowdFundingWithDeadline)\r\n    // }\r\n}    \r\n",
  "sourcePath": "C:\\Users\\npotu\\OneDrive\\Pulpit\\NIKO\\Solidity Dev\\projekty\\CrowdFundingWithDeadline\\contracts\\CrowdFundingWithDeadline.sol",
  "compiler": {
    "name": "solc",
    "version": "0.8.10+commit.fc410830.Emscripten.clang"
  },
  "schemaVersion": "3.4.3",
  "updatedAt": "2022-01-09T14:45:50.420Z",
  "devdoc": {
    "kind": "dev",
    "methods": {},
    "version": 1
  },
  "userdoc": {
    "kind": "user",
    "methods": {},
    "version": 1
  }
}