{
  "contractName": "CrowdFundingWithDeadline",
  "abi": [
    {
      "inputs": [
        {
          "internalType": "string",
          "name": "contractName",
          "type": "string"
        },
        {
          "internalType": "uint256",
          "name": "targetAmountEth",
          "type": "uint256"
        },
        {
          "internalType": "uint256",
          "name": "durationInMin",
          "type": "uint256"
        },
        {
          "internalType": "address",
          "name": "beneficiaryAddress",
          "type": "address"
        }
      ],
      "stateMutability": "nonpayable",
      "type": "constructor"
    },
    {
      "inputs": [],
      "name": "beneficiary",
      "outputs": [
        {
          "internalType": "address",
          "name": "",
          "type": "address"
        }
      ],
      "stateMutability": "view",
      "type": "function"
    },
    {
      "inputs": [],
      "name": "fundingDeadLine",
      "outputs": [
        {
          "internalType": "uint256",
          "name": "",
          "type": "uint256"
        }
      ],
      "stateMutability": "view",
      "type": "function"
    },
    {
      "inputs": [],
      "name": "name",
      "outputs": [
        {
          "internalType": "string",
          "name": "",
          "type": "string"
        }
      ],
      "stateMutability": "view",
      "type": "function"
    },
    {
      "inputs": [],
      "name": "state",
      "outputs": [
        {
          "internalType": "enum CrowdFundingWithDeadline.State",
          "name": "",
          "type": "uint8"
        }
      ],
      "stateMutability": "view",
      "type": "function"
    },
    {
      "inputs": [],
      "name": "targetAmount",
      "outputs": [
        {
          "internalType": "uint256",
          "name": "",
          "type": "uint256"
        }
      ],
      "stateMutability": "view",
      "type": "function"
    }
  ],
  "bytecode": "0x60806040523480156200001157600080fd5b5060405162000a2538038062000a258339818101604052810190620000379190620003ca565b83600090805190602001906200004f929190620000dd565b50670de0b6b3a7640000836200006691906200048a565b600181905550603c826200007b91906200048a565b6200008b620000d560201b60201c565b620000979190620004eb565b6002819055506000600360146101000a81548160ff02191690836003811115620000c657620000c562000548565b5b021790555050505050620005dc565b600042905090565b828054620000eb90620005a6565b90600052602060002090601f0160209004810192826200010f57600085556200015b565b82601f106200012a57805160ff19168380011785556200015b565b828001600101855582156200015b579182015b828111156200015a5782518255916020019190600101906200013d565b5b5090506200016a91906200016e565b5090565b5b80821115620001895760008160009055506001016200016f565b5090565b6000604051905090565b600080fd5b600080fd5b600080fd5b600080fd5b6000601f19601f8301169050919050565b7f4e487b7100000000000000000000000000000000000000000000000000000000600052604160045260246000fd5b620001f682620001ab565b810181811067ffffffffffffffff82111715620002185762000217620001bc565b5b80604052505050565b60006200022d6200018d565b90506200023b8282620001eb565b919050565b600067ffffffffffffffff8211156200025e576200025d620001bc565b5b6200026982620001ab565b9050602081019050919050565b60005b838110156200029657808201518184015260208101905062000279565b83811115620002a6576000848401525b50505050565b6000620002c3620002bd8462000240565b62000221565b905082815260208101848484011115620002e257620002e1620001a6565b5b620002ef84828562000276565b509392505050565b600082601f8301126200030f576200030e620001a1565b5b815162000321848260208601620002ac565b91505092915050565b6000819050919050565b6200033f816200032a565b81146200034b57600080fd5b50565b6000815190506200035f8162000334565b92915050565b600073ffffffffffffffffffffffffffffffffffffffff82169050919050565b6000620003928262000365565b9050919050565b620003a48162000385565b8114620003b057600080fd5b50565b600081519050620003c48162000399565b92915050565b60008060008060808587031215620003e757620003e662000197565b5b600085015167ffffffffffffffff8111156200040857620004076200019c565b5b6200041687828801620002f7565b945050602062000429878288016200034e565b93505060406200043c878288016200034e565b92505060606200044f87828801620003b3565b91505092959194509250565b7f4e487b7100000000000000000000000000000000000000000000000000000000600052601160045260246000fd5b600062000497826200032a565b9150620004a4836200032a565b9250817fffffffffffffffffffffffffffffffffffffffffffffffffffffffffffffffff0483118215151615620004e057620004df6200045b565b5b828202905092915050565b6000620004f8826200032a565b915062000505836200032a565b9250827fffffffffffffffffffffffffffffffffffffffffffffffffffffffffffffffff038211156200053d576200053c6200045b565b5b828201905092915050565b7f4e487b7100000000000000000000000000000000000000000000000000000000600052602160045260246000fd5b7f4e487b7100000000000000000000000000000000000000000000000000000000600052602260045260246000fd5b60006002820490506001821680620005bf57607f821691505b60208210811415620005d657620005d562000577565b5b50919050565b61043980620005ec6000396000f3fe608060405234801561001057600080fd5b50600436106100575760003560e01c806306fdde031461005c5780630eef346d1461007a57806338af3eed14610098578063953b8fb8146100b6578063c19d93fb146100d4575b600080fd5b6100646100f2565b604051610071919061025e565b60405180910390f35b610082610180565b60405161008f9190610299565b60405180910390f35b6100a0610186565b6040516100ad91906102f5565b60405180910390f35b6100be6101ac565b6040516100cb9190610299565b60405180910390f35b6100dc6101b2565b6040516100e99190610387565b60405180910390f35b600080546100ff906103d1565b80601f016020809104026020016040519081016040528092919081815260200182805461012b906103d1565b80156101785780601f1061014d57610100808354040283529160200191610178565b820191906000526020600020905b81548152906001019060200180831161015b57829003601f168201915b505050505081565b60025481565b600360009054906101000a900473ffffffffffffffffffffffffffffffffffffffff1681565b60015481565b600360149054906101000a900460ff1681565b600081519050919050565b600082825260208201905092915050565b60005b838110156101ff5780820151818401526020810190506101e4565b8381111561020e576000848401525b50505050565b6000601f19601f8301169050919050565b6000610230826101c5565b61023a81856101d0565b935061024a8185602086016101e1565b61025381610214565b840191505092915050565b600060208201905081810360008301526102788184610225565b905092915050565b6000819050919050565b61029381610280565b82525050565b60006020820190506102ae600083018461028a565b92915050565b600073ffffffffffffffffffffffffffffffffffffffff82169050919050565b60006102df826102b4565b9050919050565b6102ef816102d4565b82525050565b600060208201905061030a60008301846102e6565b92915050565b7f4e487b7100000000000000000000000000000000000000000000000000000000600052602160045260246000fd5b600481106103505761034f610310565b5b50565b60008190506103618261033f565b919050565b600061037182610353565b9050919050565b61038181610366565b82525050565b600060208201905061039c6000830184610378565b92915050565b7f4e487b7100000000000000000000000000000000000000000000000000000000600052602260045260246000fd5b600060028204905060018216806103e957607f821691505b602082108114156103fd576103fc6103a2565b5b5091905056fea264697066735822122045fa503782cb9c69bee923d4b02ac18848af1a82e1706c678ef0d31587a937f964736f6c634300080a0033",
  "immutableReferences": {},
  "source": "pragma solidity >=0.4.22 <0.9.0;\r\n\r\ncontract CrowdFundingWithDeadline {\r\n    enum State { Ongoing, Failed, Succeeded, PaidOut} //list of possible states\r\n\r\n    string public name; //name of campaign, a string\r\n    uint public targetAmount; //target amount in weis, to be successfull\r\n    uint public fundingDeadLine; //uint, which represents number of seconds fromm January 1, 1970\r\n    address public beneficiary;\r\n    State public state;\r\n\r\n    constructor(\r\n        string memory contractName,\r\n        uint targetAmountEth,\r\n        uint durationInMin,\r\n        address beneficiaryAddress\r\n    )\r\n        public \r\n    {\r\n        name = contractName;\r\n        targetAmount = targetAmountEth * 1 ether;\r\n        fundingDeadLine = currentTime() + durationInMin * 1 minutes; //\"currentTime\" function is not defined, so we need to define it below \r\n        state = State.Ongoing;\r\n    }\r\n\r\n    function currentTime() internal view returns(uint){ //definig currentTime function\r\n        return block.timestamp;\r\n    }\r\n}\r\n",
  "sourcePath": "C:\\Users\\npotu\\OneDrive\\Pulpit\\NIKO\\Solidity Dev\\projekty\\CrowdFundingWithDeadline\\contracts\\CrowdFundingWithDeadline.sol",
  "compiler": {
    "name": "solc",
    "version": "0.8.10+commit.fc410830.Emscripten.clang"
  },
  "schemaVersion": "3.4.3",
  "updatedAt": "2021-12-14T18:44:29.149Z",
  "devdoc": {
    "kind": "dev",
    "methods": {},
    "version": 1
  },
  "userdoc": {
    "kind": "user",
    "methods": {},
    "version": 1
  }
}