{
  "contractName": "TestCrowdFundingWithDeadline",
  "abi": [
    {
      "inputs": [
        {
          "internalType": "string",
          "name": "contractName",
          "type": "string"
        },
        {
          "internalType": "uint256",
          "name": "targetAmountEth",
          "type": "uint256"
        },
        {
          "internalType": "uint256",
          "name": "durationInMin",
          "type": "uint256"
        },
        {
          "internalType": "address payable",
          "name": "beneficiaryAddress",
          "type": "address"
        }
      ],
      "stateMutability": "nonpayable",
      "type": "constructor"
    },
    {
      "anonymous": false,
      "inputs": [
        {
          "indexed": false,
          "internalType": "address",
          "name": "adr",
          "type": "address"
        },
        {
          "indexed": false,
          "internalType": "uint256",
          "name": "totalCollected",
          "type": "uint256"
        },
        {
          "indexed": false,
          "internalType": "bool",
          "name": "succeeded",
          "type": "bool"
        }
      ],
      "name": "CampaignFinished",
      "type": "event"
    },
    {
      "inputs": [
        {
          "internalType": "address",
          "name": "",
          "type": "address"
        }
      ],
      "name": "amounts",
      "outputs": [
        {
          "internalType": "uint256",
          "name": "",
          "type": "uint256"
        }
      ],
      "stateMutability": "view",
      "type": "function"
    },
    {
      "inputs": [],
      "name": "beforeDeadLine",
      "outputs": [
        {
          "internalType": "bool",
          "name": "",
          "type": "bool"
        }
      ],
      "stateMutability": "view",
      "type": "function"
    },
    {
      "inputs": [],
      "name": "beneficiary",
      "outputs": [
        {
          "internalType": "address",
          "name": "",
          "type": "address"
        }
      ],
      "stateMutability": "view",
      "type": "function"
    },
    {
      "inputs": [],
      "name": "checkAddress",
      "outputs": [
        {
          "internalType": "address",
          "name": "",
          "type": "address"
        }
      ],
      "stateMutability": "view",
      "type": "function"
    },
    {
      "inputs": [],
      "name": "collect",
      "outputs": [],
      "stateMutability": "nonpayable",
      "type": "function"
    },
    {
      "inputs": [],
      "name": "collected",
      "outputs": [
        {
          "internalType": "bool",
          "name": "",
          "type": "bool"
        }
      ],
      "stateMutability": "view",
      "type": "function"
    },
    {
      "inputs": [],
      "name": "contribute",
      "outputs": [],
      "stateMutability": "payable",
      "type": "function"
    },
    {
      "inputs": [],
      "name": "finishCrowdFunding",
      "outputs": [],
      "stateMutability": "nonpayable",
      "type": "function"
    },
    {
      "inputs": [],
      "name": "fundingDeadLine",
      "outputs": [
        {
          "internalType": "uint256",
          "name": "",
          "type": "uint256"
        }
      ],
      "stateMutability": "view",
      "type": "function"
    },
    {
      "inputs": [],
      "name": "name",
      "outputs": [
        {
          "internalType": "string",
          "name": "",
          "type": "string"
        }
      ],
      "stateMutability": "view",
      "type": "function"
    },
    {
      "inputs": [],
      "name": "state",
      "outputs": [
        {
          "internalType": "enum CrowdFundingWithDeadline.State",
          "name": "",
          "type": "uint8"
        }
      ],
      "stateMutability": "view",
      "type": "function"
    },
    {
      "inputs": [],
      "name": "targetAmount",
      "outputs": [
        {
          "internalType": "uint256",
          "name": "",
          "type": "uint256"
        }
      ],
      "stateMutability": "view",
      "type": "function"
    },
    {
      "inputs": [],
      "name": "totalCollected",
      "outputs": [
        {
          "internalType": "uint256",
          "name": "",
          "type": "uint256"
        }
      ],
      "stateMutability": "view",
      "type": "function"
    },
    {
      "inputs": [],
      "name": "withdraw",
      "outputs": [],
      "stateMutability": "nonpayable",
      "type": "function"
    },
    {
      "inputs": [
        {
          "internalType": "uint256",
          "name": "newTime",
          "type": "uint256"
        }
      ],
      "name": "setCurrentTime",
      "outputs": [],
      "stateMutability": "nonpayable",
      "type": "function"
    }
  ],
  "bytecode": "0x60806040523480156200001157600080fd5b5060405162001788380380620017888339818101604052810190620000379190620004ea565b83838383836000908051906020019062000053929190620001fd565b5073__Utils_________________________________63d8916bb9846040518263ffffffff1660e01b81526004016200008d91906200058c565b602060405180830381865af4158015620000ab573d6000803e3d6000fd5b505050506040513d601f19601f82011682018060405250810190620000d19190620005a9565b60018190555073__Utils_________________________________63529b380f836040518263ffffffff1660e01b81526004016200011091906200058c565b602060405180830381865af41580156200012e573d6000803e3d6000fd5b505050506040513d601f19601f82011682018060405250810190620001549190620005a9565b62000164620001f360201b60201c565b6200017091906200060a565b6002819055506000600360146101000a81548160ff021916908360038111156200019f576200019e62000667565b5b021790555080600360006101000a81548173ffffffffffffffffffffffffffffffffffffffff021916908373ffffffffffffffffffffffffffffffffffffffff1602179055505050505050505050620006fb565b6000600754905090565b8280546200020b90620006c5565b90600052602060002090601f0160209004810192826200022f57600085556200027b565b82601f106200024a57805160ff19168380011785556200027b565b828001600101855582156200027b579182015b828111156200027a5782518255916020019190600101906200025d565b5b5090506200028a91906200028e565b5090565b5b80821115620002a95760008160009055506001016200028f565b5090565b6000604051905090565b600080fd5b600080fd5b600080fd5b600080fd5b6000601f19601f8301169050919050565b7f4e487b7100000000000000000000000000000000000000000000000000000000600052604160045260246000fd5b6200031682620002cb565b810181811067ffffffffffffffff82111715620003385762000337620002dc565b5b80604052505050565b60006200034d620002ad565b90506200035b82826200030b565b919050565b600067ffffffffffffffff8211156200037e576200037d620002dc565b5b6200038982620002cb565b9050602081019050919050565b60005b83811015620003b657808201518184015260208101905062000399565b83811115620003c6576000848401525b50505050565b6000620003e3620003dd8462000360565b62000341565b905082815260208101848484011115620004025762000401620002c6565b5b6200040f84828562000396565b509392505050565b600082601f8301126200042f576200042e620002c1565b5b815162000441848260208601620003cc565b91505092915050565b6000819050919050565b6200045f816200044a565b81146200046b57600080fd5b50565b6000815190506200047f8162000454565b92915050565b600073ffffffffffffffffffffffffffffffffffffffff82169050919050565b6000620004b28262000485565b9050919050565b620004c481620004a5565b8114620004d057600080fd5b50565b600081519050620004e481620004b9565b92915050565b60008060008060808587031215620005075762000506620002b7565b5b600085015167ffffffffffffffff811115620005285762000527620002bc565b5b620005368782880162000417565b945050602062000549878288016200046e565b93505060406200055c878288016200046e565b92505060606200056f87828801620004d3565b91505092959194509250565b62000586816200044a565b82525050565b6000602082019050620005a360008301846200057b565b92915050565b600060208284031215620005c257620005c1620002b7565b5b6000620005d2848285016200046e565b91505092915050565b7f4e487b7100000000000000000000000000000000000000000000000000000000600052601160045260246000fd5b600062000617826200044a565b915062000624836200044a565b9250827fffffffffffffffffffffffffffffffffffffffffffffffffffffffffffffffff038211156200065c576200065b620005db565b5b828201905092915050565b7f4e487b7100000000000000000000000000000000000000000000000000000000600052602160045260246000fd5b7f4e487b7100000000000000000000000000000000000000000000000000000000600052602260045260246000fd5b60006002820490506001821680620006de57607f821691505b60208210811415620006f557620006f462000696565b5b50919050565b61107d806200070b6000396000f3fe6080604052600436106100e85760003560e01c806355a3b2c11161008a578063c9b9b04611610059578063c9b9b046146102ae578063d7bb99ba146102d9578063e29eb836146102e3578063e52253811461030e576100e8565b806355a3b2c1146101f057806384bcefd41461022d578063953b8fb814610258578063c19d93fb14610283576100e8565b80631256fa53116100c65780631256fa531461015a57806322f8e5661461018557806338af3eed146101ae5780633ccfd60b146101d9576100e8565b806306fdde03146100ed578063083dca11146101185780630eef346d1461012f575b600080fd5b3480156100f957600080fd5b50610102610325565b60405161010f9190610afd565b60405180910390f35b34801561012457600080fd5b5061012d6103b3565b005b34801561013b57600080fd5b50610144610531565b6040516101519190610b38565b60405180910390f35b34801561016657600080fd5b5061016f610537565b60405161017c9190610b94565b60405180910390f35b34801561019157600080fd5b506101ac60048036038101906101a79190610be0565b61053f565b005b3480156101ba57600080fd5b506101c3610549565b6040516101d09190610b94565b60405180910390f35b3480156101e557600080fd5b506101ee61056f565b005b3480156101fc57600080fd5b5061021760048036038101906102129190610c39565b610773565b6040516102249190610b38565b60405180910390f35b34801561023957600080fd5b5061024261078b565b60405161024f9190610c81565b60405180910390f35b34801561026457600080fd5b5061026d61079e565b60405161027a9190610b38565b60405180910390f35b34801561028f57600080fd5b506102986107a4565b6040516102a59190610d13565b60405180910390f35b3480156102ba57600080fd5b506102c36107b7565b6040516102d09190610c81565b60405180910390f35b6102e16107ca565b005b3480156102ef57600080fd5b506102f8610921565b6040516103059190610b38565b60405180910390f35b34801561031a57600080fd5b50610323610927565b005b6000805461033290610d5d565b80601f016020809104026020016040519081016040528092919081815260200182805461035e90610d5d565b80156103ab5780601f10610380576101008083540402835291602001916103ab565b820191906000526020600020905b81548152906001019060200180831161038e57829003601f168201915b505050505081565b60008060038111156103c8576103c7610c9c565b5b600360149054906101000a900460ff1660038111156103ea576103e9610c9c565b5b1461042a576040517f08c379a000000000000000000000000000000000000000000000000000000000815260040161042190610ddb565b60405180910390fd5b6104326107b7565b15610472576040517f08c379a000000000000000000000000000000000000000000000000000000000815260040161046990610e6d565b60405180910390fd5b600560009054906101000a900460ff166104b6576001600360146101000a81548160ff021916908360038111156104ac576104ab610c9c565b5b02179055506104e2565b6002600360146101000a81548160ff021916908360038111156104dc576104db610c9c565b5b02179055505b7f6fa7e87ebbd87ed4f1c40bba63144f68fd2bb022fb748ab3b61b5411c39bd47430600654600560009054906101000a900460ff1660405161052693929190610e8d565b60405180910390a150565b60025481565b600030905090565b8060078190555050565b600360009054906101000a900473ffffffffffffffffffffffffffffffffffffffff1681565b600180600381111561058457610583610c9c565b5b600360149054906101000a900460ff1660038111156105a6576105a5610c9c565b5b146105e6576040517f08c379a00000000000000000000000000000000000000000000000000000000081526004016105dd90610ddb565b60405180910390fd5b6000600460003373ffffffffffffffffffffffffffffffffffffffff1673ffffffffffffffffffffffffffffffffffffffff1681526020019081526020016000205411610668576040517f08c379a000000000000000000000000000000000000000000000000000000000815260040161065f90610f10565b60405180910390fd5b6000600460003373ffffffffffffffffffffffffffffffffffffffff1673ffffffffffffffffffffffffffffffffffffffff1681526020019081526020016000205490506000600460003373ffffffffffffffffffffffffffffffffffffffff1673ffffffffffffffffffffffffffffffffffffffff168152602001908152602001600020819055503373ffffffffffffffffffffffffffffffffffffffff166108fc829081150290604051600060405180830381858888f1935050505061076f5780600460003373ffffffffffffffffffffffffffffffffffffffff1673ffffffffffffffffffffffffffffffffffffffff168152602001908152602001600020819055505b5050565b60046020528060005260406000206000915090505481565b600560009054906101000a900460ff1681565b60015481565b600360149054906101000a900460ff1681565b60006002546107c4610a5a565b10905090565b60008060038111156107df576107de610c9c565b5b600360149054906101000a900460ff16600381111561080157610800610c9c565b5b14610841576040517f08c379a000000000000000000000000000000000000000000000000000000000815260040161083890610ddb565b60405180910390fd5b6108496107b7565b610888576040517f08c379a000000000000000000000000000000000000000000000000000000000815260040161087f90610fa2565b60405180910390fd5b34600460003373ffffffffffffffffffffffffffffffffffffffff1673ffffffffffffffffffffffffffffffffffffffff16815260200190815260200160002060008282546108d79190610ff1565b9250508190555034600660008282546108f09190610ff1565b925050819055506001546006541061091e576001600560006101000a81548160ff0219169083151502179055505b50565b60065481565b600280600381111561093c5761093b610c9c565b5b600360149054906101000a900460ff16600381111561095e5761095d610c9c565b5b1461099e576040517f08c379a000000000000000000000000000000000000000000000000000000000815260040161099590610ddb565b60405180910390fd5b600360009054906101000a900473ffffffffffffffffffffffffffffffffffffffff1673ffffffffffffffffffffffffffffffffffffffff166108fc6006549081150290604051600060405180830381858888f1935050505015610a2b5760038060146101000a81548160ff02191690836003811115610a2157610a20610c9c565b5b0217905550610a57565b6001600360146101000a81548160ff02191690836003811115610a5157610a50610c9c565b5b02179055505b50565b6000600754905090565b600081519050919050565b600082825260208201905092915050565b60005b83811015610a9e578082015181840152602081019050610a83565b83811115610aad576000848401525b50505050565b6000601f19601f8301169050919050565b6000610acf82610a64565b610ad98185610a6f565b9350610ae9818560208601610a80565b610af281610ab3565b840191505092915050565b60006020820190508181036000830152610b178184610ac4565b905092915050565b6000819050919050565b610b3281610b1f565b82525050565b6000602082019050610b4d6000830184610b29565b92915050565b600073ffffffffffffffffffffffffffffffffffffffff82169050919050565b6000610b7e82610b53565b9050919050565b610b8e81610b73565b82525050565b6000602082019050610ba96000830184610b85565b92915050565b600080fd5b610bbd81610b1f565b8114610bc857600080fd5b50565b600081359050610bda81610bb4565b92915050565b600060208284031215610bf657610bf5610baf565b5b6000610c0484828501610bcb565b91505092915050565b610c1681610b73565b8114610c2157600080fd5b50565b600081359050610c3381610c0d565b92915050565b600060208284031215610c4f57610c4e610baf565b5b6000610c5d84828501610c24565b91505092915050565b60008115159050919050565b610c7b81610c66565b82525050565b6000602082019050610c966000830184610c72565b92915050565b7f4e487b7100000000000000000000000000000000000000000000000000000000600052602160045260246000fd5b60048110610cdc57610cdb610c9c565b5b50565b6000819050610ced82610ccb565b919050565b6000610cfd82610cdf565b9050919050565b610d0d81610cf2565b82525050565b6000602082019050610d286000830184610d04565b92915050565b7f4e487b7100000000000000000000000000000000000000000000000000000000600052602260045260246000fd5b60006002820490506001821680610d7557607f821691505b60208210811415610d8957610d88610d2e565b5b50919050565b7f496e76616c696420737461746500000000000000000000000000000000000000600082015250565b6000610dc5600d83610a6f565b9150610dd082610d8f565b602082019050919050565b60006020820190508181036000830152610df481610db8565b9050919050565b7f43616e6e6f742066696e6973682063616d706169676e206265666f726520446560008201527f61646c696e650000000000000000000000000000000000000000000000000000602082015250565b6000610e57602683610a6f565b9150610e6282610dfb565b604082019050919050565b60006020820190508181036000830152610e8681610e4a565b9050919050565b6000606082019050610ea26000830186610b85565b610eaf6020830185610b29565b610ebc6040830184610c72565b949350505050565b7f4e6f7468696e672077617320636f6e7472696275746564000000000000000000600082015250565b6000610efa601783610a6f565b9150610f0582610ec4565b602082019050919050565b60006020820190508181036000830152610f2981610eed565b9050919050565b7f4e6f20636f6e747269627574696f6e732061667465722074686520646561646c60008201527f696e650000000000000000000000000000000000000000000000000000000000602082015250565b6000610f8c602383610a6f565b9150610f9782610f30565b604082019050919050565b60006020820190508181036000830152610fbb81610f7f565b9050919050565b7f4e487b7100000000000000000000000000000000000000000000000000000000600052601160045260246000fd5b6000610ffc82610b1f565b915061100783610b1f565b9250827fffffffffffffffffffffffffffffffffffffffffffffffffffffffffffffffff0382111561103c5761103b610fc2565b5b82820190509291505056fea26469706673582212209c05394bbe9d61a2d033fc8a9c07c6f7d7ac1da8619c93c92fc99b674d463ef864736f6c634300080a0033",
  "deployedBytecode": "0x6080604052600436106100e85760003560e01c806355a3b2c11161008a578063c9b9b04611610059578063c9b9b046146102ae578063d7bb99ba146102d9578063e29eb836146102e3578063e52253811461030e576100e8565b806355a3b2c1146101f057806384bcefd41461022d578063953b8fb814610258578063c19d93fb14610283576100e8565b80631256fa53116100c65780631256fa531461015a57806322f8e5661461018557806338af3eed146101ae5780633ccfd60b146101d9576100e8565b806306fdde03146100ed578063083dca11146101185780630eef346d1461012f575b600080fd5b3480156100f957600080fd5b50610102610325565b60405161010f9190610afd565b60405180910390f35b34801561012457600080fd5b5061012d6103b3565b005b34801561013b57600080fd5b50610144610531565b6040516101519190610b38565b60405180910390f35b34801561016657600080fd5b5061016f610537565b60405161017c9190610b94565b60405180910390f35b34801561019157600080fd5b506101ac60048036038101906101a79190610be0565b61053f565b005b3480156101ba57600080fd5b506101c3610549565b6040516101d09190610b94565b60405180910390f35b3480156101e557600080fd5b506101ee61056f565b005b3480156101fc57600080fd5b5061021760048036038101906102129190610c39565b610773565b6040516102249190610b38565b60405180910390f35b34801561023957600080fd5b5061024261078b565b60405161024f9190610c81565b60405180910390f35b34801561026457600080fd5b5061026d61079e565b60405161027a9190610b38565b60405180910390f35b34801561028f57600080fd5b506102986107a4565b6040516102a59190610d13565b60405180910390f35b3480156102ba57600080fd5b506102c36107b7565b6040516102d09190610c81565b60405180910390f35b6102e16107ca565b005b3480156102ef57600080fd5b506102f8610921565b6040516103059190610b38565b60405180910390f35b34801561031a57600080fd5b50610323610927565b005b6000805461033290610d5d565b80601f016020809104026020016040519081016040528092919081815260200182805461035e90610d5d565b80156103ab5780601f10610380576101008083540402835291602001916103ab565b820191906000526020600020905b81548152906001019060200180831161038e57829003601f168201915b505050505081565b60008060038111156103c8576103c7610c9c565b5b600360149054906101000a900460ff1660038111156103ea576103e9610c9c565b5b1461042a576040517f08c379a000000000000000000000000000000000000000000000000000000000815260040161042190610ddb565b60405180910390fd5b6104326107b7565b15610472576040517f08c379a000000000000000000000000000000000000000000000000000000000815260040161046990610e6d565b60405180910390fd5b600560009054906101000a900460ff166104b6576001600360146101000a81548160ff021916908360038111156104ac576104ab610c9c565b5b02179055506104e2565b6002600360146101000a81548160ff021916908360038111156104dc576104db610c9c565b5b02179055505b7f6fa7e87ebbd87ed4f1c40bba63144f68fd2bb022fb748ab3b61b5411c39bd47430600654600560009054906101000a900460ff1660405161052693929190610e8d565b60405180910390a150565b60025481565b600030905090565b8060078190555050565b600360009054906101000a900473ffffffffffffffffffffffffffffffffffffffff1681565b600180600381111561058457610583610c9c565b5b600360149054906101000a900460ff1660038111156105a6576105a5610c9c565b5b146105e6576040517f08c379a00000000000000000000000000000000000000000000000000000000081526004016105dd90610ddb565b60405180910390fd5b6000600460003373ffffffffffffffffffffffffffffffffffffffff1673ffffffffffffffffffffffffffffffffffffffff1681526020019081526020016000205411610668576040517f08c379a000000000000000000000000000000000000000000000000000000000815260040161065f90610f10565b60405180910390fd5b6000600460003373ffffffffffffffffffffffffffffffffffffffff1673ffffffffffffffffffffffffffffffffffffffff1681526020019081526020016000205490506000600460003373ffffffffffffffffffffffffffffffffffffffff1673ffffffffffffffffffffffffffffffffffffffff168152602001908152602001600020819055503373ffffffffffffffffffffffffffffffffffffffff166108fc829081150290604051600060405180830381858888f1935050505061076f5780600460003373ffffffffffffffffffffffffffffffffffffffff1673ffffffffffffffffffffffffffffffffffffffff168152602001908152602001600020819055505b5050565b60046020528060005260406000206000915090505481565b600560009054906101000a900460ff1681565b60015481565b600360149054906101000a900460ff1681565b60006002546107c4610a5a565b10905090565b60008060038111156107df576107de610c9c565b5b600360149054906101000a900460ff16600381111561080157610800610c9c565b5b14610841576040517f08c379a000000000000000000000000000000000000000000000000000000000815260040161083890610ddb565b60405180910390fd5b6108496107b7565b610888576040517f08c379a000000000000000000000000000000000000000000000000000000000815260040161087f90610fa2565b60405180910390fd5b34600460003373ffffffffffffffffffffffffffffffffffffffff1673ffffffffffffffffffffffffffffffffffffffff16815260200190815260200160002060008282546108d79190610ff1565b9250508190555034600660008282546108f09190610ff1565b925050819055506001546006541061091e576001600560006101000a81548160ff0219169083151502179055505b50565b60065481565b600280600381111561093c5761093b610c9c565b5b600360149054906101000a900460ff16600381111561095e5761095d610c9c565b5b1461099e576040517f08c379a000000000000000000000000000000000000000000000000000000000815260040161099590610ddb565b60405180910390fd5b600360009054906101000a900473ffffffffffffffffffffffffffffffffffffffff1673ffffffffffffffffffffffffffffffffffffffff166108fc6006549081150290604051600060405180830381858888f1935050505015610a2b5760038060146101000a81548160ff02191690836003811115610a2157610a20610c9c565b5b0217905550610a57565b6001600360146101000a81548160ff02191690836003811115610a5157610a50610c9c565b5b02179055505b50565b6000600754905090565b600081519050919050565b600082825260208201905092915050565b60005b83811015610a9e578082015181840152602081019050610a83565b83811115610aad576000848401525b50505050565b6000601f19601f8301169050919050565b6000610acf82610a64565b610ad98185610a6f565b9350610ae9818560208601610a80565b610af281610ab3565b840191505092915050565b60006020820190508181036000830152610b178184610ac4565b905092915050565b6000819050919050565b610b3281610b1f565b82525050565b6000602082019050610b4d6000830184610b29565b92915050565b600073ffffffffffffffffffffffffffffffffffffffff82169050919050565b6000610b7e82610b53565b9050919050565b610b8e81610b73565b82525050565b6000602082019050610ba96000830184610b85565b92915050565b600080fd5b610bbd81610b1f565b8114610bc857600080fd5b50565b600081359050610bda81610bb4565b92915050565b600060208284031215610bf657610bf5610baf565b5b6000610c0484828501610bcb565b91505092915050565b610c1681610b73565b8114610c2157600080fd5b50565b600081359050610c3381610c0d565b92915050565b600060208284031215610c4f57610c4e610baf565b5b6000610c5d84828501610c24565b91505092915050565b60008115159050919050565b610c7b81610c66565b82525050565b6000602082019050610c966000830184610c72565b92915050565b7f4e487b7100000000000000000000000000000000000000000000000000000000600052602160045260246000fd5b60048110610cdc57610cdb610c9c565b5b50565b6000819050610ced82610ccb565b919050565b6000610cfd82610cdf565b9050919050565b610d0d81610cf2565b82525050565b6000602082019050610d286000830184610d04565b92915050565b7f4e487b7100000000000000000000000000000000000000000000000000000000600052602260045260246000fd5b60006002820490506001821680610d7557607f821691505b60208210811415610d8957610d88610d2e565b5b50919050565b7f496e76616c696420737461746500000000000000000000000000000000000000600082015250565b6000610dc5600d83610a6f565b9150610dd082610d8f565b602082019050919050565b60006020820190508181036000830152610df481610db8565b9050919050565b7f43616e6e6f742066696e6973682063616d706169676e206265666f726520446560008201527f61646c696e650000000000000000000000000000000000000000000000000000602082015250565b6000610e57602683610a6f565b9150610e6282610dfb565b604082019050919050565b60006020820190508181036000830152610e8681610e4a565b9050919050565b6000606082019050610ea26000830186610b85565b610eaf6020830185610b29565b610ebc6040830184610c72565b949350505050565b7f4e6f7468696e672077617320636f6e7472696275746564000000000000000000600082015250565b6000610efa601783610a6f565b9150610f0582610ec4565b602082019050919050565b60006020820190508181036000830152610f2981610eed565b9050919050565b7f4e6f20636f6e747269627574696f6e732061667465722074686520646561646c60008201527f696e650000000000000000000000000000000000000000000000000000000000602082015250565b6000610f8c602383610a6f565b9150610f9782610f30565b604082019050919050565b60006020820190508181036000830152610fbb81610f7f565b9050919050565b7f4e487b7100000000000000000000000000000000000000000000000000000000600052601160045260246000fd5b6000610ffc82610b1f565b915061100783610b1f565b9250827fffffffffffffffffffffffffffffffffffffffffffffffffffffffffffffffff0382111561103c5761103b610fc2565b5b82820190509291505056fea26469706673582212209c05394bbe9d61a2d033fc8a9c07c6f7d7ac1da8619c93c92fc99b674d463ef864736f6c634300080a0033",
  "immutableReferences": {},
  "source": "// SPDX-License-Identifier: MIT\r\npragma solidity >=0.4.22 <0.9.0;\r\nimport \"./CrowdFundingWithDeadline.sol\";\r\n//we create this test SC so we can set the current time for tests purposes, thsi will be the only differance between production SC\r\ncontract TestCrowdFundingWithDeadline is CrowdFundingWithDeadline{ //test contract inherits the prod. sc that we've created\r\n    uint time; //creating variable with time\r\n    //we need to initialize fields, so we provide contructor, it has the same parametrs and all it does is it calls the contructor from the parent contract and just passess all the parameters to the parent contract constructor\r\n    constructor(\r\n       string memory contractName,\r\n        uint targetAmountEth,\r\n        uint durationInMin,\r\n        address payable beneficiaryAddress \r\n    )\r\n\r\n        CrowdFundingWithDeadline(contractName, targetAmountEth, durationInMin, beneficiaryAddress)\r\n        public \r\n    {\r\n\r\n    }\r\n    \r\n    //redefining current time method that will take the value of 'time' variable \r\n    function currentTime() internal override view returns(uint){ //currentTime is internal, we dont need to call thsi from outside of SC, but SC will rely on this method to get current time\r\n        return time;\r\n    }\r\n//for test we need to have abillity to set current time, se we implement simple setter for this variable,\r\n    function setCurrentTime(uint newTime) public{ //this setter is public, because we need to ba able to call this from outside of SC,\r\n        time = newTime;\r\n    }\r\n}\r\n\r\n//POCZYTA O OVERRIDE W OBIEKTOWYM ",
  "sourcePath": "C:\\Users\\npotu\\OneDrive\\Pulpit\\NIKO\\Solidity Dev\\projekty\\CrowdFundingWithDeadline\\contracts\\TestCrowdFundingWithDeadline.sol",
  "compiler": {
    "name": "solc",
    "version": "0.8.10+commit.fc410830.Emscripten.clang"
  },
  "schemaVersion": "3.4.3",
  "updatedAt": "2022-01-09T14:45:50.431Z",
  "devdoc": {
    "kind": "dev",
    "methods": {},
    "version": 1
  },
  "userdoc": {
    "kind": "user",
    "methods": {},
    "version": 1
  }
}